{
  "_format": "hh-sol-artifact-1",
  "contractName": "PriceFeed",
  "sourceName": "contracts/PriceFeed.sol",
  "abi": [
    {
      "inputs": [
        {
          "internalType": "address",
          "name": "pythContract",
          "type": "address"
        }
      ],
      "stateMutability": "nonpayable",
      "type": "constructor"
    },
    {
      "inputs": [
        {
          "internalType": "bytes[]",
          "name": "priceUpdateData",
          "type": "bytes[]"
        }
      ],
      "name": "getBtcUsdPrice",
      "outputs": [
        {
          "components": [
            {
              "internalType": "int64",
              "name": "price",
              "type": "int64"
            },
            {
              "internalType": "uint64",
              "name": "conf",
              "type": "uint64"
            },
            {
              "internalType": "int32",
              "name": "expo",
              "type": "int32"
            },
            {
              "internalType": "uint256",
              "name": "publishTime",
              "type": "uint256"
            }
          ],
          "internalType": "struct PythStructs.Price",
          "name": "",
          "type": "tuple"
        }
      ],
      "stateMutability": "payable",
      "type": "function"
    }
  ],
  "bytecode": "0x608060405234801561001057600080fd5b50604051610963380380610963833981810160405281019061003291906100db565b806000806101000a81548173ffffffffffffffffffffffffffffffffffffffff021916908373ffffffffffffffffffffffffffffffffffffffff16021790555050610108565b600080fd5b600073ffffffffffffffffffffffffffffffffffffffff82169050919050565b60006100a88261007d565b9050919050565b6100b88161009d565b81146100c357600080fd5b50565b6000815190506100d5816100af565b92915050565b6000602082840312156100f1576100f0610078565b5b60006100ff848285016100c6565b91505092915050565b61084c806101176000396000f3fe60806040526004361061001e5760003560e01c8063998f621114610023575b600080fd5b61003d60048036038101906100389190610307565b610053565b60405161004a919061041d565b60405180910390f35b61005b610256565b60008060009054906101000a900473ffffffffffffffffffffffffffffffffffffffff1673ffffffffffffffffffffffffffffffffffffffff1663d47eed4585856040518363ffffffff1660e01b81526004016100b99291906105bc565b602060405180830381865afa1580156100d6573d6000803e3d6000fd5b505050506040513d601f19601f820116820180604052508101906100fa919061060c565b905060008054906101000a900473ffffffffffffffffffffffffffffffffffffffff1673ffffffffffffffffffffffffffffffffffffffff1663ef9e5e288286866040518463ffffffff1660e01b81526004016101589291906105bc565b6000604051808303818588803b15801561017157600080fd5b505af1158015610185573d6000803e3d6000fd5b505050505060007ff9c0172ba10dfa4d19088d94f5bf61d3b54d5bd7483a322a982e1373ee8ea31b60001b905060008054906101000a900473ffffffffffffffffffffffffffffffffffffffff1673ffffffffffffffffffffffffffffffffffffffff166331d98b3f826040518263ffffffff1660e01b815260040161020b9190610652565b608060405180830381865afa158015610228573d6000803e3d6000fd5b505050506040513d601f19601f8201168201806040525081019061024c91906107e9565b9250505092915050565b6040518060800160405280600060070b8152602001600067ffffffffffffffff168152602001600060030b8152602001600081525090565b6000604051905090565b600080fd5b600080fd5b600080fd5b600080fd5b600080fd5b60008083601f8401126102c7576102c66102a2565b5b8235905067ffffffffffffffff8111156102e4576102e36102a7565b5b602083019150836020820283011115610300576102ff6102ac565b5b9250929050565b6000806020838503121561031e5761031d610298565b5b600083013567ffffffffffffffff81111561033c5761033b61029d565b5b610348858286016102b1565b92509250509250929050565b60008160070b9050919050565b61036a81610354565b82525050565b600067ffffffffffffffff82169050919050565b61038d81610370565b82525050565b60008160030b9050919050565b6103a981610393565b82525050565b6000819050919050565b6103c2816103af565b82525050565b6080820160008201516103de6000850182610361565b5060208201516103f16020850182610384565b50604082015161040460408501826103a0565b50606082015161041760608501826103b9565b50505050565b600060808201905061043260008301846103c8565b92915050565b600082825260208201905092915050565b6000819050919050565b600082825260208201905092915050565b82818337600083830152505050565b6000601f19601f8301169050919050565b60006104908385610453565b935061049d838584610464565b6104a683610473565b840190509392505050565b60006104be848484610484565b90509392505050565b600080fd5b600080fd5b600080fd5b600080833560016020038436030381126104f3576104f26104d1565b5b83810192508235915060208301925067ffffffffffffffff82111561051b5761051a6104c7565b5b600182023603831315610531576105306104cc565b5b509250929050565b6000602082019050919050565b60006105528385610438565b93508360208402850161056484610449565b8060005b878110156105aa57848403895261057f82846104d6565b61058a8682846104b1565b955061059584610539565b935060208b019a505050600181019050610568565b50829750879450505050509392505050565b600060208201905081810360008301526105d7818486610546565b90509392505050565b6105e9816103af565b81146105f457600080fd5b50565b600081519050610606816105e0565b92915050565b60006020828403121561062257610621610298565b5b6000610630848285016105f7565b91505092915050565b6000819050919050565b61064c81610639565b82525050565b60006020820190506106676000830184610643565b92915050565b600080fd5b7f4e487b7100000000000000000000000000000000000000000000000000000000600052604160045260246000fd5b6106aa82610473565b810181811067ffffffffffffffff821117156106c9576106c8610672565b5b80604052505050565b60006106dc61028e565b90506106e882826106a1565b919050565b6106f681610354565b811461070157600080fd5b50565b600081519050610713816106ed565b92915050565b61072281610370565b811461072d57600080fd5b50565b60008151905061073f81610719565b92915050565b61074e81610393565b811461075957600080fd5b50565b60008151905061076b81610745565b92915050565b6000608082840312156107875761078661066d565b5b61079160806106d2565b905060006107a184828501610704565b60008301525060206107b584828501610730565b60208301525060406107c98482850161075c565b60408301525060606107dd848285016105f7565b60608301525092915050565b6000608082840312156107ff576107fe610298565b5b600061080d84828501610771565b9150509291505056fea2646970667358221220ca47f91e91bf0c5f8a1fb33f4be474cbdab44f5ad1338e39eff9d6c55d55b8a664736f6c63430008150033",
  "linkReferences": {},
  "deployedLinkReferences": {}
}